{
  "contractName": "AccessRestriction",
  "abi": [
    {
      "inputs": [],
      "name": "creationTime",
      "outputs": [
        {
          "internalType": "uint256",
          "name": "",
          "type": "uint256"
        }
      ],
      "stateMutability": "view",
      "type": "function"
    },
    {
      "inputs": [],
      "name": "owner",
      "outputs": [
        {
          "internalType": "address",
          "name": "",
          "type": "address"
        }
      ],
      "stateMutability": "view",
      "type": "function"
    },
    {
      "inputs": [
        {
          "internalType": "address",
          "name": "_newOwner",
          "type": "address"
        }
      ],
      "name": "changeOwner",
      "outputs": [],
      "stateMutability": "nonpayable",
      "type": "function"
    },
    {
      "inputs": [],
      "name": "disown",
      "outputs": [],
      "stateMutability": "nonpayable",
      "type": "function"
    },
    {
      "inputs": [
        {
          "internalType": "address",
          "name": "_newOwner",
          "type": "address"
        }
      ],
      "name": "forceOwnerChange",
      "outputs": [],
      "stateMutability": "payable",
      "type": "function"
    }
  ],
  "bytecode": "0x60806040524260015534801561001457600080fd5b50336000806101000a81548173ffffffffffffffffffffffffffffffffffffffff021916908373ffffffffffffffffffffffffffffffffffffffff16021790555061079a806100646000396000f3fe60806040526004361061004a5760003560e01c80630cb0c7f01461004f5780631e9bf0da1461006b5780638da5cb5b14610082578063a6f9dae1146100ad578063d8270dce146100d6575b600080fd5b6100696004803603810190610064919061047d565b610101565b005b34801561007757600080fd5b50610080610260565b005b34801561008e57600080fd5b5061009761036b565b6040516100a49190610531565b60405180910390f35b3480156100b957600080fd5b506100d460048036038101906100cf919061047d565b61038f565b005b3480156100e257600080fd5b506100eb610462565b6040516100f891906105ac565b60405180910390f35b670de0b6b3a7640000803373ffffffffffffffffffffffffffffffffffffffff16311015610164576040517f08c379a000000000000000000000000000000000000000000000000000000000815260040161015b9061054c565b60405180910390fd5b816000806101000a81548173ffffffffffffffffffffffffffffffffffffffff021916908373ffffffffffffffffffffffffffffffffffffffff160217905550600082905060016000821673ffffffffffffffffffffffffffffffffffffffff1614156101d157506101d3565b505b803373ffffffffffffffffffffffffffffffffffffffff1631111561025c573373ffffffffffffffffffffffffffffffffffffffff166108fc823373ffffffffffffffffffffffffffffffffffffffff163161022f919061062e565b9081150290604051600060405180830381858888f1935050505015801561025a573d6000803e3d6000fd5b505b5050565b60008054906101000a900473ffffffffffffffffffffffffffffffffffffffff168073ffffffffffffffffffffffffffffffffffffffff163373ffffffffffffffffffffffffffffffffffffffff16146102ef576040517f08c379a00000000000000000000000000000000000000000000000000000000081526004016102e69061058c565b60405180910390fd5b62375f0060015461030091906105d8565b80421015610343576040517f08c379a000000000000000000000000000000000000000000000000000000000815260040161033a9061056c565b60405180910390fd5b6000806101000a81549073ffffffffffffffffffffffffffffffffffffffff02191690555050565b60008054906101000a900473ffffffffffffffffffffffffffffffffffffffff1681565b60008054906101000a900473ffffffffffffffffffffffffffffffffffffffff168073ffffffffffffffffffffffffffffffffffffffff163373ffffffffffffffffffffffffffffffffffffffff161461041e576040517f08c379a00000000000000000000000000000000000000000000000000000000081526004016104159061058c565b60405180910390fd5b816000806101000a81548173ffffffffffffffffffffffffffffffffffffffff021916908373ffffffffffffffffffffffffffffffffffffffff1602179055505050565b60015481565b6000813590506104778161074d565b92915050565b600060208284031215610493576104926106cd565b5b60006104a184828501610468565b91505092915050565b6104b381610662565b82525050565b60006104c6601a836105c7565b91506104d1826106d2565b602082019050919050565b60006104e9601a836105c7565b91506104f4826106fb565b602082019050919050565b600061050c6016836105c7565b915061051782610724565b602082019050919050565b61052b81610694565b82525050565b600060208201905061054660008301846104aa565b92915050565b60006020820190508181036000830152610565816104b9565b9050919050565b60006020820190508181036000830152610585816104dc565b9050919050565b600060208201905081810360008301526105a5816104ff565b9050919050565b60006020820190506105c16000830184610522565b92915050565b600082825260208201905092915050565b60006105e382610694565b91506105ee83610694565b9250827fffffffffffffffffffffffffffffffffffffffffffffffffffffffffffffffff038211156106235761062261069e565b5b828201905092915050565b600061063982610694565b915061064483610694565b9250828210156106575761065661069e565b5b828203905092915050565b600061066d82610674565b9050919050565b600073ffffffffffffffffffffffffffffffffffffffff82169050919050565b6000819050919050565b7f4e487b7100000000000000000000000000000000000000000000000000000000600052601160045260246000fd5b600080fd5b7f4e6f7420656e6f7567682045746865722070726f76696465642e000000000000600082015250565b7f46756e6374696f6e2063616c6c656420746f6f206561726c792e000000000000600082015250565b7f53656e646572206e6f7420617574686f72697a65642e00000000000000000000600082015250565b61075681610662565b811461076157600080fd5b5056fea2646970667358221220ecc8180ca43ad9a4ad11204246bfa8e4a25ef3a40c80ddbadf06e212bfb8e46064736f6c63430008070033",
  "immutableReferences": {},
  "source": "// SPDX-License-Identifier: MIT\npragma solidity >=0.4.22 <0.9.0;\n\nimport \"./Ownable.sol\";\n\ncontract AccessRestriction is Ownable {\n\n   uint public creationTime = block.timestamp;\n\n   modifier onlyBy(address _account) {\n      require(msg.sender == _account, \"Sender not authorized.\");\n      _;\n   }\n\n   function changeOwner(address _newOwner) public onlyBy(owner) {\n      owner = _newOwner;\n   }\n\n   modifier onlyAfter(uint _time) {\n      require(block.timestamp >= _time, \"Function called too early.\");\n      _;\n   }\n\n   function disown() public onlyBy(owner) onlyAfter(creationTime + 6 weeks) {\n      delete owner;\n   }\n\n   modifier costs(uint _amount) {\n      require(msg.sender.balance >= _amount, \"Not enough Ether provided.\");\n      _;\n\n      if (msg.sender.balance > _amount)\n         payable(msg.sender).transfer(msg.sender.balance - _amount);\n   }\n\n   function forceOwnerChange(address _newOwner) public payable costs(1 ether) {\n      owner = _newOwner;\n      uint160 i = uint160(address(_newOwner));\n      if (i & 0 == 1) return;\n   }\n  \n}\n",
  "sourcePath": "C:\\Work Space\\solidity-design-pattern\\contracts\\AccessRetriction\\AccessRestriction.sol",
  "compiler": {
    "name": "solc",
    "version": "0.8.7+commit.e28d00a7.Emscripten.clang"
  },
  "schemaVersion": "3.4.3",
  "updatedAt": "2021-09-16T14:55:46.831Z",
  "devdoc": {
    "kind": "dev",
    "methods": {},
    "version": 1
  },
  "userdoc": {
    "kind": "user",
    "methods": {},
    "version": 1
  }
}