{
  "contractName": "BalanceLimit",
  "abi": [
    {
      "anonymous": false,
      "inputs": [
        {
          "indexed": false,
          "internalType": "address",
          "name": "sender",
          "type": "address"
        },
        {
          "indexed": false,
          "internalType": "uint256",
          "name": "amount",
          "type": "uint256"
        }
      ],
      "name": "Deposit",
      "type": "event"
    },
    {
      "inputs": [
        {
          "internalType": "address",
          "name": "",
          "type": "address"
        }
      ],
      "name": "balances",
      "outputs": [
        {
          "internalType": "uint256",
          "name": "",
          "type": "uint256"
        }
      ],
      "stateMutability": "view",
      "type": "function"
    },
    {
      "inputs": [],
      "name": "limit",
      "outputs": [
        {
          "internalType": "uint256",
          "name": "",
          "type": "uint256"
        }
      ],
      "stateMutability": "view",
      "type": "function"
    },
    {
      "inputs": [
        {
          "internalType": "uint256",
          "name": "_limit",
          "type": "uint256"
        }
      ],
      "name": "LimitBalance",
      "outputs": [],
      "stateMutability": "nonpayable",
      "type": "function"
    },
    {
      "inputs": [],
      "name": "deposit",
      "outputs": [],
      "stateMutability": "payable",
      "type": "function"
    }
  ],
  "bytecode": "0x608060405234801561001057600080fd5b50610490806100206000396000f3fe60806040526004361061003f5760003560e01c806327e235e314610044578063a4d66daf14610081578063d0e30db0146100ac578063e92dfb23146100b6575b600080fd5b34801561005057600080fd5b5061006b60048036038101906100669190610207565b6100df565b60405161007891906102eb565b60405180910390f35b34801561008d57600080fd5b506100966100f7565b6040516100a391906102eb565b60405180910390f35b6100b46100fd565b005b3480156100c257600080fd5b506100dd60048036038101906100d89190610234565b6101d3565b005b60016020528060005260406000206000915090505481565b60005481565b600054341115610142576040517f08c379a0000000000000000000000000000000000000000000000000000000008152600401610139906102cb565b60405180910390fd5b7fe1fffcc4923d04b559f4d29a8bfc6cda04eb5b0d3c460751c2402c5c5cc9109c33346040516101739291906102a2565b60405180910390a134600160003373ffffffffffffffffffffffffffffffffffffffff1673ffffffffffffffffffffffffffffffffffffffff16815260200190815260200160002060008282546101ca9190610317565b92505081905550565b8060008190555050565b6000813590506101ec8161042c565b92915050565b60008135905061020181610443565b92915050565b60006020828403121561021d5761021c6103d8565b5b600061022b848285016101dd565b91505092915050565b60006020828403121561024a576102496103d8565b5b6000610258848285016101f2565b91505092915050565b61026a8161036d565b82525050565b600061027d602783610306565b9150610288826103dd565b604082019050919050565b61029c8161039f565b82525050565b60006040820190506102b76000830185610261565b6102c46020830184610293565b9392505050565b600060208201905081810360008301526102e481610270565b9050919050565b60006020820190506103006000830184610293565b92915050565b600082825260208201905092915050565b60006103228261039f565b915061032d8361039f565b9250827fffffffffffffffffffffffffffffffffffffffffffffffffffffffffffffffff03821115610362576103616103a9565b5b828201905092915050565b60006103788261037f565b9050919050565b600073ffffffffffffffffffffffffffffffffffffffff82169050919050565b6000819050919050565b7f4e487b7100000000000000000000000000000000000000000000000000000000600052601160045260246000fd5b600080fd5b7f596f75722773206465706f73697420616d6f756e74206973206578656564206c60008201527f696d697465642e00000000000000000000000000000000000000000000000000602082015250565b6104358161036d565b811461044057600080fd5b50565b61044c8161039f565b811461045757600080fd5b5056fea26469706673582212202a07739614086fb66204c9b6556747822a4be9d2d09783ad84925ac7644c082864736f6c63430008070033",
  "immutableReferences": {},
  "source": "// SPDX-License-Identifier: MIT\r\npragma solidity ^0.8.0;\r\n\r\ncontract BalanceLimit {\r\n\r\n    uint256 public limit;\r\n    mapping (address => uint256) public balances;\r\n\r\n    event Deposit(address sender, uint amount);\r\n\r\n    function LimitBalance(uint256 _limit) public {\r\n        limit = _limit;\r\n    }\r\n\r\n    modifier limitedPayable {\r\n        require(msg.value <= limit, \"Your's deposit amount is exeed limited.\");\r\n        _;\r\n    }\r\n\r\n    function deposit() public payable limitedPayable {\r\n        emit Deposit(msg.sender, msg.value);\r\n        balances[msg.sender] += msg.value;\r\n    }\r\n}",
  "sourcePath": "C:\\Work Space\\solidity-design-pattern\\contracts\\BalanceLimit.sol",
  "compiler": {
    "name": "solc",
    "version": "0.8.7+commit.e28d00a7.Emscripten.clang"
  },
  "schemaVersion": "3.4.3",
  "updatedAt": "2021-09-16T14:55:46.840Z",
  "devdoc": {
    "kind": "dev",
    "methods": {},
    "version": 1
  },
  "userdoc": {
    "kind": "user",
    "methods": {},
    "version": 1
  }
}