{
  "contractName": "BalanceLimit",
  "abi": [
    {
      "anonymous": false,
      "inputs": [
        {
          "indexed": false,
          "internalType": "address",
          "name": "sender",
          "type": "address"
        },
        {
          "indexed": false,
          "internalType": "uint256",
          "name": "amount",
          "type": "uint256"
        }
      ],
      "name": "Deposit",
      "type": "event"
    },
    {
      "inputs": [
        {
          "internalType": "address",
          "name": "",
          "type": "address"
        }
      ],
      "name": "balances",
      "outputs": [
        {
          "internalType": "uint256",
          "name": "",
          "type": "uint256"
        }
      ],
      "stateMutability": "view",
      "type": "function"
    },
    {
      "inputs": [],
      "name": "limit",
      "outputs": [
        {
          "internalType": "uint256",
          "name": "",
          "type": "uint256"
        }
      ],
      "stateMutability": "view",
      "type": "function"
    },
    {
      "inputs": [
        {
          "internalType": "uint256",
          "name": "_limit",
          "type": "uint256"
        }
      ],
      "name": "LimitBalance",
      "outputs": [],
      "stateMutability": "nonpayable",
      "type": "function"
    },
    {
      "inputs": [],
      "name": "deposit",
      "outputs": [],
      "stateMutability": "payable",
      "type": "function"
    }
  ],
  "bytecode": "0x608060405234801561001057600080fd5b506103b7806100206000396000f3fe60806040526004361061003f5760003560e01c806327e235e314610044578063a4d66daf14610081578063d0e30db0146100ac578063e92dfb23146100b6575b600080fd5b34801561005057600080fd5b5061006b600480360381019061006691906101d1565b6100df565b6040516100789190610272565b60405180910390f35b34801561008d57600080fd5b506100966100f7565b6040516100a39190610272565b60405180910390f35b6100b46100fd565b005b3480156100c257600080fd5b506100dd60048036038101906100d891906101fe565b61019d565b005b60016020528060005260406000206000915090505481565b60005481565b60005434111561010c57600080fd5b7fe1fffcc4923d04b559f4d29a8bfc6cda04eb5b0d3c460751c2402c5c5cc9109c333460405161013d929190610249565b60405180910390a134600160003373ffffffffffffffffffffffffffffffffffffffff1673ffffffffffffffffffffffffffffffffffffffff1681526020019081526020016000206000828254610194919061028d565b92505081905550565b8060008190555050565b6000813590506101b681610353565b92915050565b6000813590506101cb8161036a565b92915050565b6000602082840312156101e7576101e661034e565b5b60006101f5848285016101a7565b91505092915050565b6000602082840312156102145761021361034e565b5b6000610222848285016101bc565b91505092915050565b610234816102e3565b82525050565b61024381610315565b82525050565b600060408201905061025e600083018561022b565b61026b602083018461023a565b9392505050565b6000602082019050610287600083018461023a565b92915050565b600061029882610315565b91506102a383610315565b9250827fffffffffffffffffffffffffffffffffffffffffffffffffffffffffffffffff038211156102d8576102d761031f565b5b828201905092915050565b60006102ee826102f5565b9050919050565b600073ffffffffffffffffffffffffffffffffffffffff82169050919050565b6000819050919050565b7f4e487b7100000000000000000000000000000000000000000000000000000000600052601160045260246000fd5b600080fd5b61035c816102e3565b811461036757600080fd5b50565b61037381610315565b811461037e57600080fd5b5056fea26469706673582212202c66499e3bdaed755f624a79c81d50749d4e70101f6df6cbdc31f26a3466b0eb64736f6c63430008070033",
  "immutableReferences": {},
  "source": "// SPDX-License-Identifier: GPL-3.0\r\npragma solidity ^0.8.0;\r\n\r\ncontract BalanceLimit {\r\n\r\n    uint256 public limit;\r\n    mapping (address => uint256) public balances;\r\n\r\n    event Deposit(address sender, uint amount);\r\n\r\n    function LimitBalance(uint256 _limit) public {\r\n        limit = _limit;\r\n    }\r\n\r\n    modifier limitedPayable() {\r\n        require(msg.value <= limit);\r\n        _;\r\n    }\r\n\r\n    function deposit() public payable limitedPayable {\r\n        emit Deposit(msg.sender, msg.value);\r\n        balances[msg.sender] += msg.value;\r\n    }\r\n}",
  "sourcePath": "C:\\Work Space\\solidity-design-pattern\\contracts\\Balance-Limit\\BalanceLimit.sol",
  "compiler": {
    "name": "solc",
    "version": "0.8.7+commit.e28d00a7.Emscripten.clang"
  },
  "schemaVersion": "3.4.3",
  "updatedAt": "2021-08-31T10:23:15.800Z",
  "devdoc": {
    "kind": "dev",
    "methods": {},
    "version": 1
  },
  "userdoc": {
    "kind": "user",
    "methods": {},
    "version": 1
  }
}