{
  "contractName": "CheckEffectsInteraction",
  "abi": [
    {
      "inputs": [
        {
          "internalType": "address",
          "name": "",
          "type": "address"
        }
      ],
      "name": "balances",
      "outputs": [
        {
          "internalType": "uint256",
          "name": "",
          "type": "uint256"
        }
      ],
      "stateMutability": "view",
      "type": "function"
    },
    {
      "inputs": [],
      "name": "deposit",
      "outputs": [],
      "stateMutability": "payable",
      "type": "function"
    },
    {
      "inputs": [
        {
          "internalType": "uint256",
          "name": "amount",
          "type": "uint256"
        }
      ],
      "name": "withdraw",
      "outputs": [],
      "stateMutability": "nonpayable",
      "type": "function"
    }
  ],
  "bytecode": "0x608060405234801561001057600080fd5b5061047f806100206000396000f3fe6080604052600436106100345760003560e01c806327e235e3146100395780632e1a7d4d14610076578063d0e30db01461009f575b600080fd5b34801561004557600080fd5b50610060600480360381019061005b9190610250565b6100a9565b60405161006d91906102fc565b60405180910390f35b34801561008257600080fd5b5061009d6004803603810190610098919061027d565b6100c1565b005b6100a76101e1565b005b60006020528060005260406000206000915090505481565b806000803373ffffffffffffffffffffffffffffffffffffffff1673ffffffffffffffffffffffffffffffffffffffff168152602001908152602001600020541015610142576040517f08c379a0000000000000000000000000000000000000000000000000000000008152600401610139906102dc565b60405180910390fd5b806000803373ffffffffffffffffffffffffffffffffffffffff1673ffffffffffffffffffffffffffffffffffffffff16815260200190815260200160002060008282546101909190610328565b925050819055503373ffffffffffffffffffffffffffffffffffffffff166108fc829081150290604051600060405180830381858888f193505050501580156101dd573d6000803e3d6000fd5b5050565b346000803373ffffffffffffffffffffffffffffffffffffffff1673ffffffffffffffffffffffffffffffffffffffff16815260200190815260200160002081905550565b6000813590506102358161041b565b92915050565b60008135905061024a81610432565b92915050565b600060208284031215610266576102656103c7565b5b600061027484828501610226565b91505092915050565b600060208284031215610293576102926103c7565b5b60006102a18482850161023b565b91505092915050565b60006102b7602583610317565b91506102c2826103cc565b604082019050919050565b6102d68161038e565b82525050565b600060208201905081810360008301526102f5816102aa565b9050919050565b600060208201905061031160008301846102cd565b92915050565b600082825260208201905092915050565b60006103338261038e565b915061033e8361038e565b92508282101561035157610350610398565b5b828203905092915050565b60006103678261036e565b9050919050565b600073ffffffffffffffffffffffffffffffffffffffff82169050919050565b6000819050919050565b7f4e487b7100000000000000000000000000000000000000000000000000000000600052601160045260246000fd5b600080fd5b7f596f75722072656d61696e696e672062616c616e6365206973206e6f7420656e60008201527f6f7567682e000000000000000000000000000000000000000000000000000000602082015250565b6104248161035c565b811461042f57600080fd5b50565b61043b8161038e565b811461044657600080fd5b5056fea2646970667358221220c716d6247843f41fb9c745201260d7a2c4f1c6011b1749bc79b674a3839b291d64736f6c63430008070033",
  "immutableReferences": {},
  "source": "// SPDX-License-Identifier: MIT\npragma solidity >=0.4.22 <0.9.0;\n\ncontract CheckEffectsInteraction {\n\n    mapping(address => uint256) public balances;\n\n    function deposit() public payable {\n      balances[msg.sender] = msg.value;\n    }\n\n    function withdraw(uint256 amount) public {\n      // 1 . Checks\n      require(balances[msg.sender] >= amount, \"Your remaining balance is not enough.\");\n      // 2 . Effects\n      balances[msg.sender] -= amount;\n      // 3 . Interaction\n      payable(msg.sender).transfer(amount);\n    }\n  \n}\n",
  "sourcePath": "C:\\Work Space\\solidity-design-pattern\\contracts\\CheckEffectsInteraction.sol",
  "compiler": {
    "name": "solc",
    "version": "0.8.7+commit.e28d00a7.Emscripten.clang"
  },
  "schemaVersion": "3.4.3",
  "updatedAt": "2021-09-08T16:04:42.827Z",
  "devdoc": {
    "kind": "dev",
    "methods": {},
    "version": 1
  },
  "userdoc": {
    "kind": "user",
    "methods": {},
    "version": 1
  }
}