{
  "contractName": "EmergencyStop",
  "abi": [
    {
      "anonymous": false,
      "inputs": [
        {
          "indexed": false,
          "internalType": "address",
          "name": "sender",
          "type": "address"
        },
        {
          "indexed": false,
          "internalType": "uint256",
          "name": "amount",
          "type": "uint256"
        }
      ],
      "name": "Deposit",
      "type": "event"
    },
    {
      "inputs": [
        {
          "internalType": "address",
          "name": "",
          "type": "address"
        }
      ],
      "name": "balances",
      "outputs": [
        {
          "internalType": "uint256",
          "name": "",
          "type": "uint256"
        }
      ],
      "stateMutability": "view",
      "type": "function"
    },
    {
      "inputs": [],
      "name": "toggleContractStopped",
      "outputs": [],
      "stateMutability": "nonpayable",
      "type": "function"
    },
    {
      "inputs": [],
      "name": "deposit",
      "outputs": [],
      "stateMutability": "payable",
      "type": "function"
    },
    {
      "inputs": [
        {
          "internalType": "uint256",
          "name": "_amount",
          "type": "uint256"
        }
      ],
      "name": "withdraw",
      "outputs": [],
      "stateMutability": "payable",
      "type": "function"
    }
  ],
  "bytecode": "0x60806040526000600160006101000a81548160ff02191690831515021790555034801561002b57600080fd5b506105c58061003b6000396000f3fe60806040526004361061003f5760003560e01c806327e235e3146100445780632e1a7d4d14610081578063d0e30db01461009d578063e83c78d4146100a7575b600080fd5b34801561005057600080fd5b5061006b60048036038101906100669190610308565b6100be565b60405161007891906103ec565b60405180910390f35b61009b60048036038101906100969190610335565b6100d6565b005b6100a561020c565b005b3480156100b357600080fd5b506100bc6102b2565b005b60006020528060005260406000206000915090505481565b600160009054906101000a900460ff161561020957806000803373ffffffffffffffffffffffffffffffffffffffff1673ffffffffffffffffffffffffffffffffffffffff16815260200190815260200160002054101561016c576040517f08c379a0000000000000000000000000000000000000000000000000000000008152600401610163906103cc565b60405180910390fd5b806000803373ffffffffffffffffffffffffffffffffffffffff1673ffffffffffffffffffffffffffffffffffffffff16815260200190815260200160002060008282546101ba919061046e565b925050819055503373ffffffffffffffffffffffffffffffffffffffff166108fc829081150290604051600060405180830381858888f19350505050158015610207573d6000803e3d6000fd5b505b50565b600160009054906101000a900460ff16156102b0577fe1fffcc4923d04b559f4d29a8bfc6cda04eb5b0d3c460751c2402c5c5cc9109c33346040516102529291906103a3565b60405180910390a1346000803373ffffffffffffffffffffffffffffffffffffffff1673ffffffffffffffffffffffffffffffffffffffff16815260200190815260200160002060008282546102a89190610418565b925050819055505b565b600160009054906101000a900460ff1615600160006101000a81548160ff021916908315150217905550565b6000813590506102ed81610561565b92915050565b60008135905061030281610578565b92915050565b60006020828403121561031e5761031d61050d565b5b600061032c848285016102de565b91505092915050565b60006020828403121561034b5761034a61050d565b5b6000610359848285016102f3565b91505092915050565b61036b816104a2565b82525050565b600061037e602583610407565b915061038982610512565b604082019050919050565b61039d816104d4565b82525050565b60006040820190506103b86000830185610362565b6103c56020830184610394565b9392505050565b600060208201905081810360008301526103e581610371565b9050919050565b60006020820190506104016000830184610394565b92915050565b600082825260208201905092915050565b6000610423826104d4565b915061042e836104d4565b9250827fffffffffffffffffffffffffffffffffffffffffffffffffffffffffffffffff03821115610463576104626104de565b5b828201905092915050565b6000610479826104d4565b9150610484836104d4565b925082821015610497576104966104de565b5b828203905092915050565b60006104ad826104b4565b9050919050565b600073ffffffffffffffffffffffffffffffffffffffff82169050919050565b6000819050919050565b7f4e487b7100000000000000000000000000000000000000000000000000000000600052601160045260246000fd5b600080fd5b7f596f75722072656d61696e696e672062616c616e6365206973206e6f7420656e60008201527f6f7567682e000000000000000000000000000000000000000000000000000000602082015250565b61056a816104a2565b811461057557600080fd5b50565b610581816104d4565b811461058c57600080fd5b5056fea264697066735822122056eb5f620bb6be50558c08861c9a9229215e02b518d8efd22ef5dad5f2ce1c7a64736f6c63430008070033",
  "immutableReferences": {},
  "source": "// SPDX-License-Identifier: MIT\npragma solidity >=0.4.22 <0.9.0;\n\ncontract EmergencyStop {\n  \n  event Deposit(address sender, uint amount);\n\n  mapping (address => uint256) public balances;\n  bool contractStopped = false;\n  address owner;\n\n  modifier _onlyOwner {\n    require(msg.sender == owner); \n    _;\n  }\n\n  modifier haltInEmergency {\n    if (contractStopped) _;\n  }\n\n  modifier enableInEmergency {\n    if (contractStopped) _;\n  }\n\n  function toggleContractStopped() public {\n    contractStopped = !contractStopped;\n  }\n\n  function deposit() public payable haltInEmergency {\n    emit Deposit(msg.sender, msg.value);\n    balances[msg.sender] += msg.value;\n  }\n\n  function withdraw(uint256 _amount) public payable enableInEmergency {\n    require(balances[msg.sender] >= _amount, \"Your remaining balance is not enough.\");\n    balances[msg.sender] -= _amount;\n    payable(msg.sender).transfer(_amount);\n  }\n\n}\n",
  "sourcePath": "C:\\Work Space\\solidity-design-pattern\\contracts\\EmergencyStop.sol",
  "compiler": {
    "name": "solc",
    "version": "0.8.7+commit.e28d00a7.Emscripten.clang"
  },
  "schemaVersion": "3.4.3",
  "updatedAt": "2021-09-16T14:55:46.855Z",
  "devdoc": {
    "kind": "dev",
    "methods": {},
    "version": 1
  },
  "userdoc": {
    "kind": "user",
    "methods": {},
    "version": 1
  }
}