{
  "contractName": "Mutex",
  "abi": [
    {
      "inputs": [],
      "name": "f",
      "outputs": [
        {
          "internalType": "bytes",
          "name": "",
          "type": "bytes"
        }
      ],
      "stateMutability": "nonpayable",
      "type": "function"
    }
  ],
  "bytecode": "0x608060405260405161001090610098565b604051809103906000f08015801561002c573d6000803e3d6000fd5b506000806101000a81548173ffffffffffffffffffffffffffffffffffffffff021916908373ffffffffffffffffffffffffffffffffffffffff16021790555060008060146101000a81548160ff02191690831515021790555034801561009257600080fd5b506100a5565b61030d806104e883390190565b610434806100b46000396000f3fe608060405234801561001057600080fd5b506004361061002b5760003560e01c806326121ff014610030575b600080fd5b61003861004e565b60405161004591906102ce565b60405180910390f35b6060600060149054906101000a900460ff161561006a57600080fd5b6001600060146101000a81548160ff021916908315150217905550600060405160240161009690610310565b6040516020818303038152906040527ff31a6969000000000000000000000000000000000000000000000000000000007bffffffffffffffffffffffffffffffffffffffffffffffffffffffff19166020820180517bffffffffffffffffffffffffffffffffffffffffffffffffffffffff8381831617835250505050905060008060008054906101000a900473ffffffffffffffffffffffffffffffffffffffff1673ffffffffffffffffffffffffffffffffffffffff168360405161015d91906102b7565b6000604051808303816000865af19150503d806000811461019a576040519150601f19603f3d011682016040523d82523d6000602084013e61019f565b606091505b5091509150816101e4576040517f08c379a00000000000000000000000000000000000000000000000000000000081526004016101db906102f0565b60405180910390fd5b80935050505060008060146101000a81548160ff02191690831515021790555090565b600061021282610330565b61021c818561033b565b935061022c818560208601610368565b6102358161039b565b840191505092915050565b600061024b82610330565b610255818561034c565b9350610265818560208601610368565b80840191505092915050565b600061027e601c83610357565b9150610289826103ac565b602082019050919050565b60006102a1600d83610357565b91506102ac826103d5565b602082019050919050565b60006102c38284610240565b915081905092915050565b600060208201905081810360008301526102e88184610207565b905092915050565b6000602082019050818103600083015261030981610271565b9050919050565b6000602082019050818103600083015261032981610294565b9050919050565b600081519050919050565b600082825260208201905092915050565b600081905092915050565b600082825260208201905092915050565b60005b8381101561038657808201518184015260208101905061036b565b83811115610395576000848401525b50505050565b6000601f19601f8301169050919050565b7f4661696c656420746f2063616c6c20666f6f20636f6e74726163742e00000000600082015250565b7f4d79204e616d65277320466f6f0000000000000000000000000000000000000060008201525056fea264697066735822122019adf05df918856621d9661d8062b54101bdd83b4d114bd7df595eec8322f24864736f6c63430008070033608060405234801561001057600080fd5b506102ed806100206000396000f3fe608060405234801561001057600080fd5b506004361061002b5760003560e01c8063f31a696914610030575b600080fd5b61004a600480360381019061004591906100da565b610060565b604051610057919061015c565b60405180910390f35b6060819050919050565b600061007d610078846101a3565b61017e565b90508281526020810184848401111561009957610098610297565b5b6100a48482856101f0565b509392505050565b600082601f8301126100c1576100c0610292565b5b81356100d184826020860161006a565b91505092915050565b6000602082840312156100f0576100ef6102a1565b5b600082013567ffffffffffffffff81111561010e5761010d61029c565b5b61011a848285016100ac565b91505092915050565b600061012e826101d4565b61013881856101df565b93506101488185602086016101ff565b610151816102a6565b840191505092915050565b600060208201905081810360008301526101768184610123565b905092915050565b6000610188610199565b90506101948282610232565b919050565b6000604051905090565b600067ffffffffffffffff8211156101be576101bd610263565b5b6101c7826102a6565b9050602081019050919050565b600081519050919050565b600082825260208201905092915050565b82818337600083830152505050565b60005b8381101561021d578082015181840152602081019050610202565b8381111561022c576000848401525b50505050565b61023b826102a6565b810181811067ffffffffffffffff8211171561025a57610259610263565b5b80604052505050565b7f4e487b7100000000000000000000000000000000000000000000000000000000600052604160045260246000fd5b600080fd5b600080fd5b600080fd5b600080fd5b6000601f19601f830116905091905056fea264697066735822122081c958d8a8a5647cc5c4839a2d6d91318675139129fb736c02c458b22a26ab3964736f6c63430008070033",
  "immutableReferences": {},
  "source": "// SPDX-License-Identifier: MIT\npragma solidity >=0.4.22 <0.9.0;\n\nimport \"./TestMutex.sol\";\n\ncontract Mutex {\n\n  TestMutex exAddr = new TestMutex();\n\n  bool locked = false;\n\n  modifier onReentrancy {\n    require(!locked);\n    locked = true;\n    _;\n    locked = false;\n  }\n\n  function f() onReentrancy public returns (bytes memory) {\n    bytes memory payload = abi.encodeWithSignature(\"foo(string)\", \"My Name's Foo\");\n    (bool success, bytes memory returnData) = address(exAddr).call(payload);\n    require(success, \"Failed to call foo contract.\");\n    return returnData;\n  }\n\n}\n",
  "sourcePath": "C:\\Work Space\\solidity-design-pattern\\contracts\\Mutex\\Mutex.sol",
  "compiler": {
    "name": "solc",
    "version": "0.8.7+commit.e28d00a7.Emscripten.clang"
  },
  "schemaVersion": "3.4.3",
  "updatedAt": "2021-09-08T16:04:42.836Z",
  "devdoc": {
    "kind": "dev",
    "methods": {},
    "version": 1
  },
  "userdoc": {
    "kind": "user",
    "methods": {},
    "version": 1
  }
}