{
  "contractName": "RateLimit",
  "abi": [
    {
      "anonymous": false,
      "inputs": [
        {
          "indexed": false,
          "internalType": "address",
          "name": "sender",
          "type": "address"
        },
        {
          "indexed": false,
          "internalType": "uint256",
          "name": "amount",
          "type": "uint256"
        }
      ],
      "name": "Deposit",
      "type": "event"
    },
    {
      "inputs": [],
      "name": "deposit",
      "outputs": [],
      "stateMutability": "payable",
      "type": "function"
    },
    {
      "inputs": [
        {
          "internalType": "uint256",
          "name": "_amount",
          "type": "uint256"
        }
      ],
      "name": "withdraw",
      "outputs": [],
      "stateMutability": "nonpayable",
      "type": "function"
    }
  ],
  "bytecode": "0x60806040524260005534801561001457600080fd5b506104a6806100246000396000f3fe6080604052600436106100295760003560e01c80632e1a7d4d1461002e578063d0e30db014610057575b600080fd5b34801561003a57600080fd5b5061005560048036038101906100509190610248565b610061565b005b61005f6101a2565b005b600a600054421061019e5780426100789190610310565b60008190555081600160003373ffffffffffffffffffffffffffffffffffffffff1673ffffffffffffffffffffffffffffffffffffffff168152602001908152602001600020541015610100576040517f08c379a00000000000000000000000000000000000000000000000000000000081526004016100f7906102df565b60405180910390fd5b81600160003373ffffffffffffffffffffffffffffffffffffffff1673ffffffffffffffffffffffffffffffffffffffff168152602001908152602001600020600082825461014f9190610366565b925050819055503373ffffffffffffffffffffffffffffffffffffffff166108fc839081150290604051600060405180830381858888f1935050505015801561019c573d6000803e3d6000fd5b505b5050565b7fe1fffcc4923d04b559f4d29a8bfc6cda04eb5b0d3c460751c2402c5c5cc9109c33346040516101d39291906102b6565b60405180910390a134600160003373ffffffffffffffffffffffffffffffffffffffff1673ffffffffffffffffffffffffffffffffffffffff168152602001908152602001600020600082825461022a9190610310565b92505081905550565b60008135905061024281610459565b92915050565b60006020828403121561025e5761025d610405565b5b600061026c84828501610233565b91505092915050565b61027e8161039a565b82525050565b60006102916025836102ff565b915061029c8261040a565b604082019050919050565b6102b0816103cc565b82525050565b60006040820190506102cb6000830185610275565b6102d860208301846102a7565b9392505050565b600060208201905081810360008301526102f881610284565b9050919050565b600082825260208201905092915050565b600061031b826103cc565b9150610326836103cc565b9250827fffffffffffffffffffffffffffffffffffffffffffffffffffffffffffffffff0382111561035b5761035a6103d6565b5b828201905092915050565b6000610371826103cc565b915061037c836103cc565b92508282101561038f5761038e6103d6565b5b828203905092915050565b60006103a5826103ac565b9050919050565b600073ffffffffffffffffffffffffffffffffffffffff82169050919050565b6000819050919050565b7f4e487b7100000000000000000000000000000000000000000000000000000000600052601160045260246000fd5b600080fd5b7f596f75722072656d61696e696e672062616c616e6365206973206e6f7420656e60008201527f6f7567682e000000000000000000000000000000000000000000000000000000602082015250565b610462816103cc565b811461046d57600080fd5b5056fea2646970667358221220f0cefc6ff6f82b5f4beb9c175016ba5c2e1b602fc25009bbaca709ca62bd736164736f6c63430008070033",
  "immutableReferences": {},
  "source": "// SPDX-License-Identifier: MIT\npragma solidity >=0.4.22 <0.9.0;\n\ncontract RateLimit {\n  \n  uint256 enabledAt = block.timestamp;\n\n  mapping (address => uint256) balances;\n  event Deposit(address sender, uint amount);\n\n  modifier enabledEvery(uint256 t) {\n    if (block.timestamp >= enabledAt) {\n        enabledAt = block.timestamp + t;\n        _;\n    }\n  }\n\n  function deposit() public payable {\n    emit Deposit(msg.sender, msg.value);\n    balances[msg.sender] += msg.value;\n  }\n\n  function withdraw(uint256 _amount) public enabledEvery(10 seconds) {\n    require(balances[msg.sender] >= _amount, \"Your remaining balance is not enough.\");\n    balances[msg.sender] -= _amount;\n    payable(msg.sender).transfer(_amount);\n  }\n\n}\n",
  "sourcePath": "C:\\Work Space\\solidity-design-pattern\\contracts\\RateLimit.sol",
  "compiler": {
    "name": "solc",
    "version": "0.8.7+commit.e28d00a7.Emscripten.clang"
  },
  "schemaVersion": "3.4.3",
  "updatedAt": "2021-09-08T16:04:42.842Z",
  "devdoc": {
    "kind": "dev",
    "methods": {},
    "version": 1
  },
  "userdoc": {
    "kind": "user",
    "methods": {},
    "version": 1
  }
}