{
  "contractName": "RateLimit",
  "abi": [
    {
      "anonymous": false,
      "inputs": [
        {
          "indexed": false,
          "internalType": "address",
          "name": "sender",
          "type": "address"
        },
        {
          "indexed": false,
          "internalType": "uint256",
          "name": "amount",
          "type": "uint256"
        }
      ],
      "name": "Deposit",
      "type": "event"
    },
    {
      "inputs": [
        {
          "internalType": "address",
          "name": "",
          "type": "address"
        }
      ],
      "name": "balances",
      "outputs": [
        {
          "internalType": "uint256",
          "name": "",
          "type": "uint256"
        }
      ],
      "stateMutability": "view",
      "type": "function"
    },
    {
      "inputs": [],
      "name": "deposit",
      "outputs": [],
      "stateMutability": "payable",
      "type": "function"
    },
    {
      "inputs": [
        {
          "internalType": "uint256",
          "name": "_amount",
          "type": "uint256"
        }
      ],
      "name": "withdraw",
      "outputs": [],
      "stateMutability": "nonpayable",
      "type": "function"
    }
  ],
  "bytecode": "0x60806040524260005534801561001457600080fd5b50610648806100246000396000f3fe6080604052600436106100345760003560e01c806327e235e3146100395780632e1a7d4d14610076578063d0e30db01461009f575b600080fd5b34801561004557600080fd5b50610060600480360381019061005b91906102f9565b6100a9565b60405161006d9190610420565b60405180910390f35b34801561008257600080fd5b5061009d60048036038101906100989190610326565b6100c1565b005b6100a761023e565b005b60016020528060005260406000206000915090505481565b610258600054421015610109576040517f08c379a0000000000000000000000000000000000000000000000000000000008152600401610100906103e0565b60405180910390fd5b8042610115919061044c565b60008190555081600160003373ffffffffffffffffffffffffffffffffffffffff1673ffffffffffffffffffffffffffffffffffffffff16815260200190815260200160002054101561019d576040517f08c379a000000000000000000000000000000000000000000000000000000000815260040161019490610400565b60405180910390fd5b81600160003373ffffffffffffffffffffffffffffffffffffffff1673ffffffffffffffffffffffffffffffffffffffff16815260200190815260200160002060008282546101ec91906104a2565b925050819055503373ffffffffffffffffffffffffffffffffffffffff166108fc839081150290604051600060405180830381858888f19350505050158015610239573d6000803e3d6000fd5b505050565b7fe1fffcc4923d04b559f4d29a8bfc6cda04eb5b0d3c460751c2402c5c5cc9109c333460405161026f9291906103b7565b60405180910390a134600160003373ffffffffffffffffffffffffffffffffffffffff1673ffffffffffffffffffffffffffffffffffffffff16815260200190815260200160002060008282546102c6919061044c565b92505081905550565b6000813590506102de816105e4565b92915050565b6000813590506102f3816105fb565b92915050565b60006020828403121561030f5761030e610541565b5b600061031d848285016102cf565b91505092915050565b60006020828403121561033c5761033b610541565b5b600061034a848285016102e4565b91505092915050565b61035c816104d6565b82525050565b600061036f60288361043b565b915061037a82610546565b604082019050919050565b600061039260258361043b565b915061039d82610595565b604082019050919050565b6103b181610508565b82525050565b60006040820190506103cc6000830185610353565b6103d960208301846103a8565b9392505050565b600060208201905081810360008301526103f981610362565b9050919050565b6000602082019050818103600083015261041981610385565b9050919050565b600060208201905061043560008301846103a8565b92915050565b600082825260208201905092915050565b600061045782610508565b915061046283610508565b9250827fffffffffffffffffffffffffffffffffffffffffffffffffffffffffffffffff0382111561049757610496610512565b5b828201905092915050565b60006104ad82610508565b91506104b883610508565b9250828210156104cb576104ca610512565b5b828203905092915050565b60006104e1826104e8565b9050919050565b600073ffffffffffffffffffffffffffffffffffffffff82169050919050565b6000819050919050565b7f4e487b7100000000000000000000000000000000000000000000000000000000600052601160045260246000fd5b600080fd5b7f796f757220726571756573742074696d6573206973206c657373207468616e2060008201527f3130206d696e732e000000000000000000000000000000000000000000000000602082015250565b7f596f75722072656d61696e696e672062616c616e6365206973206e6f7420656e60008201527f6f7567682e000000000000000000000000000000000000000000000000000000602082015250565b6105ed816104d6565b81146105f857600080fd5b50565b61060481610508565b811461060f57600080fd5b5056fea264697066735822122035eaa0616e56aabea77a3a342951ab6896b8daeae3ff9c88332d69d83f89e4bb64736f6c63430008070033",
  "immutableReferences": {},
  "source": "// SPDX-License-Identifier: MIT\npragma solidity >=0.4.22 <0.9.0;\n\ncontract RateLimit {\n  \n  uint256 enabledAt = block.timestamp;\n\n  mapping (address => uint256) public balances;\n  event Deposit(address sender, uint amount);\n\n  modifier enabledEvery(uint256 t) {\n    require(block.timestamp >= enabledAt, \"your request times is less than 10 mins.\");\n    enabledAt = block.timestamp + t;\n    _;\n  }\n\n  function deposit() public payable {\n    emit Deposit(msg.sender, msg.value);\n    balances[msg.sender] += msg.value;\n  }\n\n  function withdraw(uint256 _amount) public enabledEvery(10 minutes) {\n    require(balances[msg.sender] >= _amount, \"Your remaining balance is not enough.\");\n    balances[msg.sender] -= _amount;\n    payable(msg.sender).transfer(_amount);\n  }\n\n}\n",
  "sourcePath": "C:\\Work Space\\solidity-design-pattern\\contracts\\RateLimit.sol",
  "compiler": {
    "name": "solc",
    "version": "0.8.7+commit.e28d00a7.Emscripten.clang"
  },
  "schemaVersion": "3.4.3",
  "updatedAt": "2021-09-16T14:55:46.868Z",
  "devdoc": {
    "kind": "dev",
    "methods": {},
    "version": 1
  },
  "userdoc": {
    "kind": "user",
    "methods": {},
    "version": 1
  }
}