{
  "contractName": "SecureEtherSender",
  "abi": [
    {
      "inputs": [
        {
          "internalType": "uint256",
          "name": "_amount",
          "type": "uint256"
        }
      ],
      "name": "sendEther",
      "outputs": [],
      "stateMutability": "payable",
      "type": "function"
    },
    {
      "inputs": [
        {
          "internalType": "uint256",
          "name": "_amount",
          "type": "uint256"
        }
      ],
      "name": "callValueEther",
      "outputs": [],
      "stateMutability": "payable",
      "type": "function"
    }
  ],
  "bytecode": "0x60806040526040516100109061007e565b604051809103906000f08015801561002c573d6000803e3d6000fd5b506000806101000a81548173ffffffffffffffffffffffffffffffffffffffff021916908373ffffffffffffffffffffffffffffffffffffffff16021790555034801561007857600080fd5b5061008a565b6062806101f983390190565b610160806100996000396000f3fe6080604052600436106100295760003560e01c8063dc6fcf6a1461002e578063f88d331a1461004a575b600080fd5b610048600480360381019061004391906100d7565b610066565b005b610064600480360381019061005f91906100d7565b610069565b005b50565b60008054906101000a900473ffffffffffffffffffffffffffffffffffffffff1673ffffffffffffffffffffffffffffffffffffffff166108fc829081150290604051600060405180830381858888f193505050505050565b6000813590506100d181610113565b92915050565b6000602082840312156100ed576100ec61010e565b5b60006100fb848285016100c2565b91505092915050565b6000819050919050565b600080fd5b61011c81610104565b811461012757600080fd5b5056fea2646970667358221220afac551ee7d0e668b1118b8d79023e573fd5efc685073bbb73ecabdf95cd17b664736f6c634300080700336080604052348015600f57600080fd5b50604580601d6000396000f3fe608060405236600a57005b600080fdfea26469706673582212208331099d1dc92283e25a1e50b3be6f6dcba776fdeb63e37947106e8a360170c464736f6c63430008070033",
  "immutableReferences": {},
  "source": "// SDPX-License-Identifier: MIT\r\npragma solidity ^0.8.0;\r\n\r\nimport \"../SecureEtherTransfer/SecureEtherReceiver.sol\";\r\n\r\ncontract SecureEtherSender {\r\n\r\n    SecureEtherReceiver private receiverAdr = new SecureEtherReceiver();\r\n\r\n    function sendEther(uint256 _amount) public payable {\r\n        if (!payable(receiverAdr).send(_amount)) {\r\n            // handle failed send\r\n        }\r\n    }\r\n\r\n    function callValueEther(uint256 _amount) public payable {\r\n        //require(address(receiverAdr).call{value: _amount, gas: 35000}(\"\"), abi.encodeWithSignature(signatureString, arg););\r\n    }\r\n\r\n}",
  "sourcePath": "C:\\Work Space\\solidity-design-pattern\\contracts\\SecureEtherTransfer\\SecureEtherSender.sol",
  "compiler": {
    "name": "solc",
    "version": "0.8.7+commit.e28d00a7.Emscripten.clang"
  },
  "schemaVersion": "3.4.3",
  "updatedAt": "2021-09-08T16:04:42.846Z",
  "devdoc": {
    "kind": "dev",
    "methods": {},
    "version": 1
  },
  "userdoc": {
    "kind": "user",
    "methods": {},
    "version": 1
  }
}