{
  "contractName": "SpeedBump",
  "abi": [
    {
      "anonymous": false,
      "inputs": [
        {
          "indexed": false,
          "internalType": "address",
          "name": "sender",
          "type": "address"
        },
        {
          "indexed": false,
          "internalType": "uint256",
          "name": "amount",
          "type": "uint256"
        }
      ],
      "name": "Deposit",
      "type": "event"
    },
    {
      "anonymous": false,
      "inputs": [
        {
          "indexed": false,
          "internalType": "bool",
          "name": "status",
          "type": "bool"
        },
        {
          "indexed": false,
          "internalType": "uint256",
          "name": "amount",
          "type": "uint256"
        },
        {
          "indexed": false,
          "internalType": "uint256",
          "name": "requestedAt",
          "type": "uint256"
        }
      ],
      "name": "Requested",
      "type": "event"
    },
    {
      "inputs": [],
      "name": "deposit",
      "outputs": [],
      "stateMutability": "payable",
      "type": "function"
    },
    {
      "inputs": [
        {
          "internalType": "uint256",
          "name": "_amount",
          "type": "uint256"
        }
      ],
      "name": "requestWithdrawal",
      "outputs": [],
      "stateMutability": "nonpayable",
      "type": "function"
    },
    {
      "inputs": [],
      "name": "withdraw",
      "outputs": [],
      "stateMutability": "payable",
      "type": "function"
    }
  ],
  "bytecode": "0x608060405234801561001057600080fd5b506107dc806100206000396000f3fe6080604052600436106100345760003560e01c80633ccfd60b146100395780639ee679e814610043578063d0e30db01461006c575b600080fd5b610041610076565b005b34801561004f57600080fd5b5061006a600480360381019061006591906104ce565b610233565b005b610074610429565b005b600062093a80600160003373ffffffffffffffffffffffffffffffffffffffff1673ffffffffffffffffffffffffffffffffffffffff168152602001908152602001600020600101546100c9919061061f565b905080421161010d576040517f08c379a0000000000000000000000000000000000000000000000000000000008152600401610104906105ce565b60405180910390fd5b6000600160003373ffffffffffffffffffffffffffffffffffffffff1673ffffffffffffffffffffffffffffffffffffffff168152602001908152602001600020600001541115610230576000600160003373ffffffffffffffffffffffffffffffffffffffff1673ffffffffffffffffffffffffffffffffffffffff1681526020019081526020016000206000015490506000600160003373ffffffffffffffffffffffffffffffffffffffff1673ffffffffffffffffffffffffffffffffffffffff168152602001908152602001600020600001819055503373ffffffffffffffffffffffffffffffffffffffff166108fc829081150290604051600060405180830381858888f1935050505015801561022d573d6000803e3d6000fd5b50505b50565b806000803373ffffffffffffffffffffffffffffffffffffffff1673ffffffffffffffffffffffffffffffffffffffff1681526020019081526020016000205410156102b4576040517f08c379a00000000000000000000000000000000000000000000000000000000081526004016102ab906105ee565b60405180910390fd5b60008060003373ffffffffffffffffffffffffffffffffffffffff1673ffffffffffffffffffffffffffffffffffffffff16815260200190815260200160002054111561042657604051806040016040528082815260200142815250600160003373ffffffffffffffffffffffffffffffffffffffff1673ffffffffffffffffffffffffffffffffffffffff16815260200190815260200160002060008201518160000155602082015181600101559050507f41fe443bc7019e5ebd645726e45a04a58e64e76998ddb1a09745605f81dfa4b160018060003373ffffffffffffffffffffffffffffffffffffffff1673ffffffffffffffffffffffffffffffffffffffff16815260200190815260200160002060000154600160003373ffffffffffffffffffffffffffffffffffffffff1673ffffffffffffffffffffffffffffffffffffffff1681526020019081526020016000206001015460405161041d93929190610597565b60405180910390a15b50565b7fe1fffcc4923d04b559f4d29a8bfc6cda04eb5b0d3c460751c2402c5c5cc9109c333460405161045a92919061056e565b60405180910390a1346000803373ffffffffffffffffffffffffffffffffffffffff1673ffffffffffffffffffffffffffffffffffffffff16815260200190815260200160002060008282546104b0919061061f565b92505081905550565b6000813590506104c88161078f565b92915050565b6000602082840312156104e4576104e36106ec565b5b60006104f2848285016104b9565b91505092915050565b61050481610675565b82525050565b61051381610687565b82525050565b600061052660248361060e565b9150610531826106f1565b604082019050919050565b600061054960258361060e565b915061055482610740565b604082019050919050565b610568816106b3565b82525050565b600060408201905061058360008301856104fb565b610590602083018461055f565b9392505050565b60006060820190506105ac600083018661050a565b6105b9602083018561055f565b6105c6604083018461055f565b949350505050565b600060208201905081810360008301526105e781610519565b9050919050565b600060208201905081810360008301526106078161053c565b9050919050565b600082825260208201905092915050565b600061062a826106b3565b9150610635836106b3565b9250827fffffffffffffffffffffffffffffffffffffffffffffffffffffffffffffffff0382111561066a576106696106bd565b5b828201905092915050565b600061068082610693565b9050919050565b60008115159050919050565b600073ffffffffffffffffffffffffffffffffffffffff82169050919050565b6000819050919050565b7f4e487b7100000000000000000000000000000000000000000000000000000000600052601160045260246000fd5b600080fd5b7f596f75722061737365742077696c6c206265206c6f636b65642061742037206460008201527f6179732e00000000000000000000000000000000000000000000000000000000602082015250565b7f596f75722072656d61696e696e672062616c616e6365206973206e6f7420656e60008201527f6f7567682e000000000000000000000000000000000000000000000000000000602082015250565b610798816106b3565b81146107a357600080fd5b5056fea2646970667358221220794661516060096bbbe741e6d4269c7e5c7ba23783ecd51efab57130c16f676064736f6c63430008070033",
  "immutableReferences": {},
  "source": "// SPDX-License-Identifier: MIT\npragma solidity >=0.4.22 <0.9.0;\n\ncontract SpeedBump {\n  \n  struct Withdrawal {\n    uint256 amount;\n    uint256 requestedAt;\n  }\n\n  mapping (address => uint256) private balances;\n  mapping (address => Withdrawal) private withdrawals;\n\n  uint256 constant WAIT_PERRIOD = 7 days;\n\n  event Requested(bool status, uint256 amount, uint256 requestedAt);\n  event Deposit(address sender, uint amount);\n\n  function deposit() public payable {\n    emit Deposit(msg.sender, msg.value);\n    balances[msg.sender] += msg.value;\n  }\n\n  function requestWithdrawal(uint256 _amount) public {\n    require(balances[msg.sender] >= _amount, \"Your remaining balance is not enough.\");\n    if (balances[msg.sender] > 0) {\n      withdrawals[msg.sender] = Withdrawal({\n        amount: _amount,\n        requestedAt: block.timestamp\n      });\n      emit Requested(true, withdrawals[msg.sender].amount, withdrawals[msg.sender].requestedAt);\n    }\n  }\n\n  function withdraw() public payable {\n    uint256 times_period = withdrawals[msg.sender].requestedAt + WAIT_PERRIOD;\n    require(block.timestamp > times_period, \"Your asset will be locked at 7 days.\");\n    if(withdrawals[msg.sender].amount > 0 ) {\n      uint amount = withdrawals[msg.sender].amount;\n      withdrawals[msg.sender].amount = 0;\n      payable(msg.sender).transfer(amount);\n    }\n  }\n\n}\n",
  "sourcePath": "C:\\Work Space\\solidity-design-pattern\\contracts\\SpeedBump.sol",
  "compiler": {
    "name": "solc",
    "version": "0.8.7+commit.e28d00a7.Emscripten.clang"
  },
  "schemaVersion": "3.4.3",
  "updatedAt": "2021-09-08T16:04:42.849Z",
  "devdoc": {
    "kind": "dev",
    "methods": {},
    "version": 1
  },
  "userdoc": {
    "kind": "user",
    "methods": {},
    "version": 1
  }
}