{
  "contractName": "SpeedBump",
  "abi": [
    {
      "anonymous": false,
      "inputs": [
        {
          "indexed": false,
          "internalType": "bool",
          "name": "status",
          "type": "bool"
        },
        {
          "indexed": false,
          "internalType": "uint256",
          "name": "amount",
          "type": "uint256"
        },
        {
          "indexed": false,
          "internalType": "uint256",
          "name": "requestedAt",
          "type": "uint256"
        }
      ],
      "name": "Requested",
      "type": "event"
    },
    {
      "anonymous": false,
      "inputs": [
        {
          "indexed": false,
          "internalType": "address",
          "name": "addr",
          "type": "address"
        },
        {
          "indexed": false,
          "internalType": "uint256",
          "name": "amount",
          "type": "uint256"
        }
      ],
      "name": "withdrawal",
      "type": "event"
    },
    {
      "inputs": [],
      "name": "deposit",
      "outputs": [],
      "stateMutability": "payable",
      "type": "function"
    },
    {
      "inputs": [
        {
          "internalType": "uint256",
          "name": "_amount",
          "type": "uint256"
        }
      ],
      "name": "requestWithdrawal",
      "outputs": [],
      "stateMutability": "nonpayable",
      "type": "function"
    },
    {
      "inputs": [],
      "name": "withdraw",
      "outputs": [],
      "stateMutability": "payable",
      "type": "function"
    }
  ],
  "bytecode": "0x608060405234801561001057600080fd5b50610626806100206000396000f3fe6080604052600436106100345760003560e01c80633ccfd60b146100395780639ee679e814610043578063d0e30db01461006c575b600080fd5b610041610076565b005b34801561004f57600080fd5b5061006a60048036038101906100659190610414565b610233565b005b6100746103a8565b005b600062093a80600160003373ffffffffffffffffffffffffffffffffffffffff1673ffffffffffffffffffffffffffffffffffffffff168152602001908152602001600020600101546100c991906104ea565b905080421161010d576040517f08c379a0000000000000000000000000000000000000000000000000000000008152600401610104906104b9565b60405180910390fd5b6000600160003373ffffffffffffffffffffffffffffffffffffffff1673ffffffffffffffffffffffffffffffffffffffff168152602001908152602001600020600001541115610230576000600160003373ffffffffffffffffffffffffffffffffffffffff1673ffffffffffffffffffffffffffffffffffffffff1681526020019081526020016000206000015490506000600160003373ffffffffffffffffffffffffffffffffffffffff1673ffffffffffffffffffffffffffffffffffffffff168152602001908152602001600020600001819055503373ffffffffffffffffffffffffffffffffffffffff166108fc829081150290604051600060405180830381858888f1935050505015801561022d573d6000803e3d6000fd5b50505b50565b60008060003373ffffffffffffffffffffffffffffffffffffffff1673ffffffffffffffffffffffffffffffffffffffff1681526020019081526020016000205411156103a557604051806040016040528082815260200142815250600160003373ffffffffffffffffffffffffffffffffffffffff1673ffffffffffffffffffffffffffffffffffffffff16815260200190815260200160002060008201518160000155602082015181600101559050507f41fe443bc7019e5ebd645726e45a04a58e64e76998ddb1a09745605f81dfa4b160018060003373ffffffffffffffffffffffffffffffffffffffff1673ffffffffffffffffffffffffffffffffffffffff16815260200190815260200160002060000154600160003373ffffffffffffffffffffffffffffffffffffffff1673ffffffffffffffffffffffffffffffffffffffff1681526020019081526020016000206001015460405161039c93929190610482565b60405180910390a15b50565b346000803373ffffffffffffffffffffffffffffffffffffffff1673ffffffffffffffffffffffffffffffffffffffff16815260200190815260200160002060008282546103f691906104ea565b92505081905550565b60008135905061040e816105d9565b92915050565b60006020828403121561042a57610429610585565b5b6000610438848285016103ff565b91505092915050565b61044a81610540565b82525050565b600061045d6024836104d9565b91506104688261058a565b604082019050919050565b61047c8161054c565b82525050565b60006060820190506104976000830186610441565b6104a46020830185610473565b6104b16040830184610473565b949350505050565b600060208201905081810360008301526104d281610450565b9050919050565b600082825260208201905092915050565b60006104f58261054c565b91506105008361054c565b9250827fffffffffffffffffffffffffffffffffffffffffffffffffffffffffffffffff0382111561053557610534610556565b5b828201905092915050565b60008115159050919050565b6000819050919050565b7f4e487b7100000000000000000000000000000000000000000000000000000000600052601160045260246000fd5b600080fd5b7f596f75722061737365742077696c6c206265206c6f636b65642061742037206460008201527f6179732e00000000000000000000000000000000000000000000000000000000602082015250565b6105e28161054c565b81146105ed57600080fd5b5056fea2646970667358221220720575c3ee55316fdca5638ee787a07cbc8bf1af9f7fa9faa779928285a6324664736f6c63430008070033",
  "immutableReferences": {},
  "source": "// SPDX-License-Identifier: MIT\npragma solidity >=0.4.22 <0.9.0;\n\ncontract SpeedBump {\n  \n  struct Withdrawal {\n    uint256 amount;\n    uint256 requestedAt;\n  }\n\n  mapping (address => uint256) private balances;\n  mapping (address => Withdrawal) private withdrawals;\n\n  uint256 constant WAIT_PERRIOD = 7 days;\n\n  event Requested(bool status, uint256 amount, uint256 requestedAt);\n  event withdrawal(address addr, uint amount);\n\n  function deposit() public payable {\n    balances[msg.sender] += msg.value;\n  }\n\n  function requestWithdrawal(uint256 _amount) public {\n    if (balances[msg.sender] > 0) {\n        withdrawals[msg.sender] = Withdrawal({\n          amount: _amount,\n          requestedAt: block.timestamp\n        });\n      emit Requested(true, withdrawals[msg.sender].amount, withdrawals[msg.sender].requestedAt);\n    }\n  }\n\n  function withdraw() public payable {\n    uint256 times_period = withdrawals[msg.sender].requestedAt + WAIT_PERRIOD;\n    require(block.timestamp > times_period, \"Your asset will be locked at 7 days.\");\n    if(withdrawals[msg.sender].amount > 0 ) {\n      uint amount = withdrawals[msg.sender].amount;\n      withdrawals[msg.sender].amount = 0;\n      payable(msg.sender).transfer(amount);\n    }\n  }\n\n}\n",
  "sourcePath": "C:\\Work Space\\solidity-design-pattern\\contracts\\SpeedBump.sol",
  "compiler": {
    "name": "solc",
    "version": "0.8.7+commit.e28d00a7.Emscripten.clang"
  },
  "schemaVersion": "3.4.3",
  "updatedAt": "2021-09-16T14:55:46.876Z",
  "devdoc": {
    "kind": "dev",
    "methods": {},
    "version": 1
  },
  "userdoc": {
    "kind": "user",
    "methods": {},
    "version": 1
  }
}