{
  "contractName": "TestMutex",
  "abi": [
    {
      "inputs": [
        {
          "internalType": "string",
          "name": "txt",
          "type": "string"
        }
      ],
      "name": "foo",
      "outputs": [
        {
          "internalType": "string",
          "name": "",
          "type": "string"
        }
      ],
      "stateMutability": "pure",
      "type": "function"
    }
  ],
  "bytecode": "0x608060405234801561001057600080fd5b506102ed806100206000396000f3fe608060405234801561001057600080fd5b506004361061002b5760003560e01c8063f31a696914610030575b600080fd5b61004a600480360381019061004591906100da565b610060565b604051610057919061015c565b60405180910390f35b6060819050919050565b600061007d610078846101a3565b61017e565b90508281526020810184848401111561009957610098610297565b5b6100a48482856101f0565b509392505050565b600082601f8301126100c1576100c0610292565b5b81356100d184826020860161006a565b91505092915050565b6000602082840312156100f0576100ef6102a1565b5b600082013567ffffffffffffffff81111561010e5761010d61029c565b5b61011a848285016100ac565b91505092915050565b600061012e826101d4565b61013881856101df565b93506101488185602086016101ff565b610151816102a6565b840191505092915050565b600060208201905081810360008301526101768184610123565b905092915050565b6000610188610199565b90506101948282610232565b919050565b6000604051905090565b600067ffffffffffffffff8211156101be576101bd610263565b5b6101c7826102a6565b9050602081019050919050565b600081519050919050565b600082825260208201905092915050565b82818337600083830152505050565b60005b8381101561021d578082015181840152602081019050610202565b8381111561022c576000848401525b50505050565b61023b826102a6565b810181811067ffffffffffffffff8211171561025a57610259610263565b5b80604052505050565b7f4e487b7100000000000000000000000000000000000000000000000000000000600052604160045260246000fd5b600080fd5b600080fd5b600080fd5b600080fd5b6000601f19601f830116905091905056fea264697066735822122081c958d8a8a5647cc5c4839a2d6d91318675139129fb736c02c458b22a26ab3964736f6c63430008070033",
  "immutableReferences": {},
  "source": "// SPDX-License-Identifier: MIT\npragma solidity >=0.4.22 <0.9.0;\n\ncontract TestMutex {\n\n    function foo(string memory txt) public pure returns (string memory) {\n      return txt;\n    }\n\n}\n",
  "sourcePath": "C:\\Work Space\\solidity-design-pattern\\contracts\\Mutex\\TestMutex.sol",
  "compiler": {
    "name": "solc",
    "version": "0.8.7+commit.e28d00a7.Emscripten.clang"
  },
  "schemaVersion": "3.4.3",
  "updatedAt": "2021-09-16T14:55:46.864Z",
  "devdoc": {
    "kind": "dev",
    "methods": {},
    "version": 1
  },
  "userdoc": {
    "kind": "user",
    "methods": {},
    "version": 1
  }
}